:100000000C9434000C9449000C9449000C94490061
:100010000C9449000C9449000C9449000C9449003C
:100020000C9449000C9449000C9449000C9449002C
:100030000C9449000C9449000C9449000C9449001C
:100040000C9449000C9449000C9449000C9449000C
:100050000C9449000C9449000C9449000C944900FC
:100060000C9449000C94490011241FBECFEFD8E036
:10007000DEBFCDBF11E0A0E0B1E0E0EAF1E002C0F8
:1000800005900D92AA30B107D9F70E944B000C944D
:10009000CE000C940000CF93DF93CDB7DEB72A9744
:1000A0000FB6F894DEBF0FBECDBF8AE0E0E0F1E00E
:1000B000DE01119601900D928A95E1F717B88FEF46
:1000C00084B98AB988B986B18E3761F18F3791F1D9
:1000D00061C0E1E0F0E0EC0FFD1FE40FF51F2081AF
:1000E0002BB9E1E0F0E0EC0FFD1FE80FF91F2081D4
:1000F00025B92FEF30E762E0215030406040E1F752
:1001000000C0000026B12E3739F4019602C080E00D
:1001100090E08A309105ECF286B18E3741F44F5F62
:100120005F4F02C040E050E04A30510584F386B191
:100130008E3749F649E050E027C0E1E0F0E0EC0FEF
:10014000FD1FE40FF51F20812BB9E1E0F0E0EC0F7B
:10015000FD1FE80FF91F208125B92FEF30E762E07E
:10016000215030406040E1F700C0000026B12F3739
:1001700031F4019702C089E090E09923F4F686B14A
:100180008F3721F4415051095523ACF786B18F3791
:1001900009F099CF86E785B98BB995CFF894FFCF51
:0A01A0003F065B4F666D7D077F6F21
:00000001FF
