:100000000C9434000C9449000C9449000C94490061
:100010000C9449000C9449000C9449000C9449003C
:100020000C9449000C9449000C9449000C9449002C
:100030000C9449000C9449000C9449000C9449001C
:100040000C9449000C9449000C9449000C9449000C
:100050000C9449000C9449000C9449000C944900FC
:100060000C9449000C94490011241FBECFEFD8E036
:10007000DEBFCDBF12E0A0E0B1E0ECEFF6E002C0E1
:1000800005900D92A239B107D9F70E944B000C944C
:100090007C030C940000CF93DF93CDB7DEB7CE5531
:1000A000D1400FB6F894DEBF0FBECDBF8CE0E0E0CC
:1000B000F1E0DE01119601900D928A95E1F78CE056
:1000C000ECE0F1E0DE011D9601900D928A95E1F7DA
:1000D00088E0E8E1F1E0DE01599601900D928A9501
:1000E000E1F78CE0E0E2F1E0DE01919601900D9203
:1000F0008A95E1F78AE0ECE2F1E0DE019D9601905D
:100100000D928A95E1F788E0E6E3F1E0DE01D7960B
:1001100001900D928A95E1F78EE0EEE3F1E0DE01C9
:10012000DF9601900D928A95E1F78EE0ECE4F1E024
:10013000DE01A35BBF4F01900D928A95E1F784E346
:10014000EAE5F1E0DE01A55ABF4F01900D928A95D4
:10015000E1F780EDEEE8F1E0DE01A157BF4F01903D
:100160000D928A95E1F71AB88FEF87B984B98BB9E8
:1001700089B18F3E09F4A2C150F48F3B09F442C209
:100180008F3D09F4EDC18F3709F0A0C28DC28B3FBE
:1001900009F4F0C020F4873F09F43EC197C28D3FB7
:1001A00009F496C08E3F09F441C090C2F701EE0FEA
:1001B000FF1F81E090E08C0F9D1FE80FF91F608109
:1001C0007181F801EE0FFF1F8BE590E08C0F9D1FF2
:1001D000E80FF91F808191810E947303892BD1F46C
:1001E000000F111F000F111F000F111FEFE8F0E0AB
:1001F000EC0FFD1FE00FF11F808185B9848188B964
:100200009FE926E881E0915020408040E1F700C05E
:10021000000008C00F5F1F4F02C000E010E00A316D
:10022000110520F29FEFE91AF90A02C0E12CF12C26
:1002300026E0E216F10488F315B818B88FE39DE0C4
:1002400023E0815090402040E1F700C0000090CFB3
:10025000F701EE0FFF1F81E090E08C0F9D1FE80F6C
:10026000F91F64857585F801EE0FFF1F8BE590E09F
:100270008C0F9D1FE80FF91F808191810E947303ED
:10028000892BD1F4000F111F000F111F000F111F38
:10029000EFE8F0E0EC0FFD1FE00FF11F808185B962
:1002A000848188B99FE926E881E091502040804010
:1002B000E1F700C0000008C00F5F1F4F02C000E060
:1002C00010E00A31110520F29FEFE91AF90A02C085
:1002D000E12CF12C26E0E216F10488F315B818B8E9
:1002E0008FE39DE023E0815090402040E1F700C083
:1002F00000003ECFF701EE0FFF1F81E090E08C0F72
:100300009D1FE80FF91F608D718DF801EE0FFF1F23
:100310008BE590E08C0F9D1FE80FF91F8081918184
:100320000E947303892BD1F4000F111F000F111FBE
:10033000000F111FEFE8F0E0EC0FFD1FE00FF11FC1
:10034000808185B9848188B99FE926E881E0915050
:1003500020408040E1F700C0000008C00F5F1F4F41
:1003600002C000E010E00A31110520F29FEFE91A07
:10037000F90A02C0E12CF12C24E0E216F10488F322
:1003800015B818B88FE39DE023E0815090402040DD
:10039000E1F700C00000ECCEF701EE0FFF1F81E097
:1003A00090E08C0F9D1FE80FF91F60A171A1F8016B
:1003B000EE0FFF1F8BE590E08C0F9D1FE80FF91FDC
:1003C000808191810E947303892BD1F4000F111F4A
:1003D000000F111F000F111FEFE8F0E0EC0FFD1FE1
:1003E000E00FF11F808185B9848188B99FE926E8F3
:1003F00081E0915020408040E1F700C0000008C03B
:100400000F5F1F4F02C000E010E00A31110520F21B
:100410009FEFE91AF90A02C0E12CF12C26E0E2165E
:10042000F10488F315B818B88FE39DE023E08150FC
:1004300090402040E1F700C000009ACEF701EE0F97
:10044000FF1F81E090E08C0F9D1FE80FF91F64A54E
:1004500075A5F801EE0FFF1F8BE590E08C0F9D1F37
:10046000E80FF91F808191810E947303892BD1F4D9
:10047000000F111F000F111F000F111FEFE8F0E018
:10048000EC0FFD1FE00FF11F808185B9848188B9D1
:100490009FE926E881E0915020408040E1F700C0CC
:1004A000000008C00F5F1F4F02C000E010E00A31DB
:1004B000110520F29FEFE91AF90A02C0E12CF12C94
:1004C00025E0E216F10488F315B818B88FE39DE033
:1004D00023E0815090402040E1F700C0000048CE6A
:1004E000F701EE0FFF1F81E090E08C0F9D1FE80FDA
:1004F000F91F66A977A9F801EE0FFF1F8BE590E0C1
:100500008C0F9D1FE80FF91F808191810E9473035A
:10051000892BD1F4000F111F000F111F000F111FA5
:10052000EFE8F0E0EC0FFD1FE00FF11F808185B9CF
:10053000848188B99FE926E881E09150204080407D
:10054000E1F700C0000008C00F5F1F4F02C000E0CD
:1005500010E00A31110520F29FEFE91AF90A02C0F2
:10056000E12CF12C24E0E216F10488F315B818B858
:100570008FE39DE023E0815090402040E1F700C0F0
:100580000000F6CDF701EE0FFF1F81E090E08C0F29
:100590009D1FE80FF91F66AD77ADF801EE0FFF1F45
:1005A0008BE590E08C0F9D1FE80FF91F80819181F2
:1005B0000E947303892BD1F4000F111F000F111F2C
:1005C000000F111FEFE8F0E0EC0FFD1FE00FF11F2F
:1005D000808185B9848188B99FE926E881E09150BE
:1005E00020408040E1F700C0000008C00F5F1F4FAF
:1005F00002C000E010E00A31110520F29FEFE91A75
:10060000F90A02C0E12CF12C27E0E216F10488F38C
:1006100015B818B88FE39DE023E08150904020404A
:10062000E1F700C00000A4CDF701EE0FFF1F8DE43D
:1006300090E08C0F9D1FE80FF91F60817181F80118
:10064000EE0FFF1F8BE590E08C0F9D1FE80FF91F49
:10065000808191810E947303892BD1F4000F111FB7
:10066000000F111F000F111FEFE8F0E0EC0FFD1F4E
:10067000E00FF11F808185B9848188B99FE926E860
:1006800081E0915020408040E1F700C0000008C0A8
:100690000F5F1F4F02C000E010E00A31110520F289
:1006A0009FEFE91AF90A02C0E12CF12C27E0E216CB
:1006B000F10488F315B818B88FE39DE023E081506A
:1006C00090402040E1F700C0000052CDC95BDE4FF2
:1006D0008881C754D14085B9C55BDE4F8881CB5432
:1006E000D14088B945CDFB01DC018D910190801985
:0C06F0000110D9F3990B0895F894FFCF86
:1006FC005E026002620264025E0266025E026402D4
:10070C0068026A0266026C026E026A026002700281
:10071C0072026C0264027402640260026E02600275
:10072C005E02660276026402740260027002680263
:10073C006A02760278026002740272027A02720213
:10074C007C027A0264026802720260027E028002FB
:10075C007C02660282026802840264026E028602D5
:10076C006C025E027002720288028A027A027602BF
:10077C0078026A0274028C0262028E0290023700C6
:10078C000000220000008F0000000A000000390069
:10079C000000000000008F0000000800000039007D
:1007AC0000002000000031000000200000003D008F
:1007BC00000002000000360000002200000089004A
:1007CC000000080000001E000000000000003000C7
:1007DC00000025000000380000000000000076003A
:1007EC0000000100000076000000040000003F0043
:1007FC0000000000000033000000220000003F0059
:10080C0000000400000033000000260000002D0052
:10081C0000002200000081000000080000003E00E3
:10082C000000000000003000000011000000360045
:10083C000000140000004000000015000000400003
:10084C0000000900000009000000110000004D002C
:10085C004100580049004500470055004C004A0033
:10086C004E004F005600530054005200440042000A
:10087C004300460048004B005000510057005900FF
:02088C005A0010
:00000001FF
