:100000000C9434000C943E000C943E000C943E0082
:100010000C943E000C943E000C943E000C943E0068
:100020000C943E000C943E000C943E000C943E0058
:100030000C943E000C943E000C943E000C943E0048
:100040000C943E000C943E000C943E000C943E0038
:100050000C943E000C943E000C943E000C943E0028
:100060000C943E000C943E0011241FBECFEFD8E04C
:10007000DEBFCDBF0E9440000C947B000C940000BA
:100080001AB88FEF84B98BB989B18F3E11F158F44A
:100090008F3741F118F48F3341F12AC08F3BF9F0CB
:1000A0008F3DD1F025C08B3F71F018F4873F71F080
:1000B0001FC08D3F29F08E3FD9F486E085B9E4CF8B
:1000C0008BE585B9E1CF8FE485B9DECF86E685B9CA
:1000D000DBCF8DE685B9D8CF8DE785B9D5CF87E061
:1000E00085B9D2CF8FE785B9CFCF8FE685B9CCCF91
:0A00F0008FEB85B9C9CFF894FFCF5C
:00000001FF
